{
  "contractName": "RealEstate",
  "abi": [
    {
      "anonymous": false,
      "inputs": [
        {
          "indexed": true,
          "internalType": "uint256",
          "name": "id",
          "type": "uint256"
        },
        {
          "indexed": true,
          "internalType": "address",
          "name": "owner",
          "type": "address"
        },
        {
          "indexed": false,
          "internalType": "uint256",
          "name": "price",
          "type": "uint256"
        }
      ],
      "name": "PropertyListed",
      "type": "event"
    },
    {
      "anonymous": false,
      "inputs": [
        {
          "indexed": true,
          "internalType": "uint256",
          "name": "id",
          "type": "uint256"
        },
        {
          "indexed": true,
          "internalType": "address",
          "name": "oldOwner",
          "type": "address"
        },
        {
          "indexed": true,
          "internalType": "address",
          "name": "newOwner",
          "type": "address"
        },
        {
          "indexed": false,
          "internalType": "uint256",
          "name": "price",
          "type": "uint256"
        }
      ],
      "name": "PropertyResold",
      "type": "event"
    },
    {
      "anonymous": false,
      "inputs": [
        {
          "indexed": true,
          "internalType": "uint256",
          "name": "id",
          "type": "uint256"
        },
        {
          "indexed": true,
          "internalType": "address",
          "name": "oldOwner",
          "type": "address"
        },
        {
          "indexed": true,
          "internalType": "address",
          "name": "newOwner",
          "type": "address"
        },
        {
          "indexed": false,
          "internalType": "uint256",
          "name": "price",
          "type": "uint256"
        }
      ],
      "name": "PropertySold",
      "type": "event"
    },
    {
      "anonymous": false,
      "inputs": [
        {
          "indexed": true,
          "internalType": "uint256",
          "name": "productId",
          "type": "uint256"
        },
        {
          "indexed": true,
          "internalType": "address",
          "name": "reviewer",
          "type": "address"
        },
        {
          "indexed": false,
          "internalType": "uint8",
          "name": "rating",
          "type": "uint8"
        },
        {
          "indexed": false,
          "internalType": "string",
          "name": "comment",
          "type": "string"
        }
      ],
      "name": "ReviewAdded",
      "type": "event"
    },
    {
      "anonymous": false,
      "inputs": [
        {
          "indexed": true,
          "internalType": "uint256",
          "name": "productId",
          "type": "uint256"
        },
        {
          "indexed": true,
          "internalType": "uint256",
          "name": "reviewIndex",
          "type": "uint256"
        },
        {
          "indexed": true,
          "internalType": "address",
          "name": "liker",
          "type": "address"
        },
        {
          "indexed": false,
          "internalType": "uint256",
          "name": "likes",
          "type": "uint256"
        }
      ],
      "name": "ReviewLiked",
      "type": "event"
    },
    {
      "inputs": [],
      "name": "listingPrice",
      "outputs": [
        {
          "internalType": "uint256",
          "name": "",
          "type": "uint256"
        }
      ],
      "stateMutability": "view",
      "type": "function"
    },
    {
      "inputs": [],
      "name": "propertyIndex",
      "outputs": [
        {
          "internalType": "uint256",
          "name": "",
          "type": "uint256"
        }
      ],
      "stateMutability": "view",
      "type": "function"
    },
    {
      "inputs": [],
      "name": "reviewsCounter",
      "outputs": [
        {
          "internalType": "uint256",
          "name": "",
          "type": "uint256"
        }
      ],
      "stateMutability": "view",
      "type": "function"
    },
    {
      "inputs": [
        {
          "internalType": "address",
          "name": "owner",
          "type": "address"
        },
        {
          "internalType": "uint256",
          "name": "price",
          "type": "uint256"
        },
        {
          "internalType": "string",
          "name": "_propertyTitle",
          "type": "string"
        },
        {
          "internalType": "string",
          "name": "_category",
          "type": "string"
        },
        {
          "internalType": "string",
          "name": "_images",
          "type": "string"
        },
        {
          "internalType": "string",
          "name": "_propertyAddress",
          "type": "string"
        },
        {
          "internalType": "string",
          "name": "_description",
          "type": "string"
        }
      ],
      "name": "listProperty",
      "outputs": [
        {
          "internalType": "uint256",
          "name": "",
          "type": "uint256"
        },
        {
          "internalType": "string",
          "name": "",
          "type": "string"
        },
        {
          "internalType": "string",
          "name": "",
          "type": "string"
        },
        {
          "internalType": "string",
          "name": "",
          "type": "string"
        },
        {
          "internalType": "string",
          "name": "",
          "type": "string"
        }
      ],
      "stateMutability": "nonpayable",
      "type": "function"
    },
    {
      "inputs": [
        {
          "internalType": "address",
          "name": "owner",
          "type": "address"
        },
        {
          "internalType": "uint256",
          "name": "productId",
          "type": "uint256"
        },
        {
          "internalType": "string",
          "name": "_propertyTitle",
          "type": "string"
        },
        {
          "internalType": "string",
          "name": "_category",
          "type": "string"
        },
        {
          "internalType": "string",
          "name": "_images",
          "type": "string"
        },
        {
          "internalType": "string",
          "name": "_propertyAddress",
          "type": "string"
        },
        {
          "internalType": "string",
          "name": "_description",
          "type": "string"
        }
      ],
      "name": "updateProperty",
      "outputs": [
        {
          "internalType": "uint256",
          "name": "",
          "type": "uint256"
        },
        {
          "internalType": "string",
          "name": "",
          "type": "string"
        },
        {
          "internalType": "string",
          "name": "",
          "type": "string"
        },
        {
          "internalType": "string",
          "name": "",
          "type": "string"
        },
        {
          "internalType": "string",
          "name": "",
          "type": "string"
        },
        {
          "internalType": "string",
          "name": "",
          "type": "string"
        }
      ],
      "stateMutability": "nonpayable",
      "type": "function"
    },
    {
      "inputs": [
        {
          "internalType": "address",
          "name": "owner",
          "type": "address"
        },
        {
          "internalType": "uint256",
          "name": "productId",
          "type": "uint256"
        },
        {
          "internalType": "uint256",
          "name": "price",
          "type": "uint256"
        }
      ],
      "name": "updatePrice",
      "outputs": [
        {
          "internalType": "string",
          "name": "",
          "type": "string"
        }
      ],
      "stateMutability": "nonpayable",
      "type": "function"
    },
    {
      "inputs": [
        {
          "internalType": "uint256",
          "name": "id",
          "type": "uint256"
        },
        {
          "internalType": "address",
          "name": "buyer",
          "type": "address"
        }
      ],
      "name": "buyProperty",
      "outputs": [],
      "stateMutability": "payable",
      "type": "function"
    },
    {
      "inputs": [],
      "name": "getAllProperties",
      "outputs": [
        {
          "components": [
            {
              "internalType": "uint256",
              "name": "productID",
              "type": "uint256"
            },
            {
              "internalType": "address",
              "name": "owner",
              "type": "address"
            },
            {
              "internalType": "uint256",
              "name": "price",
              "type": "uint256"
            },
            {
              "internalType": "string",
              "name": "propertyTitle",
              "type": "string"
            },
            {
              "internalType": "string",
              "name": "category",
              "type": "string"
            },
            {
              "internalType": "string",
              "name": "images",
              "type": "string"
            },
            {
              "internalType": "string",
              "name": "propertyAddress",
              "type": "string"
            },
            {
              "internalType": "string",
              "name": "description",
              "type": "string"
            },
            {
              "internalType": "address[]",
              "name": "reviewers",
              "type": "address[]"
            },
            {
              "internalType": "string[]",
              "name": "reviews",
              "type": "string[]"
            }
          ],
          "internalType": "struct RealEstate.Property[]",
          "name": "",
          "type": "tuple[]"
        }
      ],
      "stateMutability": "view",
      "type": "function"
    },
    {
      "inputs": [
        {
          "internalType": "uint256",
          "name": "id",
          "type": "uint256"
        }
      ],
      "name": "getProperty",
      "outputs": [
        {
          "internalType": "uint256",
          "name": "",
          "type": "uint256"
        },
        {
          "internalType": "address",
          "name": "",
          "type": "address"
        },
        {
          "internalType": "uint256",
          "name": "",
          "type": "uint256"
        },
        {
          "internalType": "string",
          "name": "",
          "type": "string"
        },
        {
          "internalType": "string",
          "name": "",
          "type": "string"
        },
        {
          "internalType": "string",
          "name": "",
          "type": "string"
        },
        {
          "internalType": "string",
          "name": "",
          "type": "string"
        },
        {
          "internalType": "string",
          "name": "",
          "type": "string"
        },
        {
          "internalType": "address[]",
          "name": "",
          "type": "address[]"
        },
        {
          "internalType": "string[]",
          "name": "",
          "type": "string[]"
        }
      ],
      "stateMutability": "view",
      "type": "function"
    },
    {
      "inputs": [
        {
          "internalType": "address",
          "name": "user",
          "type": "address"
        }
      ],
      "name": "getUserProperties",
      "outputs": [
        {
          "components": [
            {
              "internalType": "uint256",
              "name": "productID",
              "type": "uint256"
            },
            {
              "internalType": "address",
              "name": "owner",
              "type": "address"
            },
            {
              "internalType": "uint256",
              "name": "price",
              "type": "uint256"
            },
            {
              "internalType": "string",
              "name": "propertyTitle",
              "type": "string"
            },
            {
              "internalType": "string",
              "name": "category",
              "type": "string"
            },
            {
              "internalType": "string",
              "name": "images",
              "type": "string"
            },
            {
              "internalType": "string",
              "name": "propertyAddress",
              "type": "string"
            },
            {
              "internalType": "string",
              "name": "description",
              "type": "string"
            },
            {
              "internalType": "address[]",
              "name": "reviewers",
              "type": "address[]"
            },
            {
              "internalType": "string[]",
              "name": "reviews",
              "type": "string[]"
            }
          ],
          "internalType": "struct RealEstate.Property[]",
          "name": "",
          "type": "tuple[]"
        }
      ],
      "stateMutability": "view",
      "type": "function"
    },
    {
      "inputs": [
        {
          "internalType": "uint256",
          "name": "productId",
          "type": "uint256"
        },
        {
          "internalType": "uint8",
          "name": "rating",
          "type": "uint8"
        },
        {
          "internalType": "string",
          "name": "comment",
          "type": "string"
        },
        {
          "internalType": "address",
          "name": "user",
          "type": "address"
        }
      ],
      "name": "addReview",
      "outputs": [],
      "stateMutability": "nonpayable",
      "type": "function"
    },
    {
      "inputs": [
        {
          "internalType": "uint256",
          "name": "productId",
          "type": "uint256"
        }
      ],
      "name": "getProductReviews",
      "outputs": [
        {
          "components": [
            {
              "internalType": "address",
              "name": "reviewer",
              "type": "address"
            },
            {
              "internalType": "uint256",
              "name": "productId",
              "type": "uint256"
            },
            {
              "internalType": "uint8",
              "name": "rating",
              "type": "uint8"
            },
            {
              "internalType": "string",
              "name": "comment",
              "type": "string"
            },
            {
              "internalType": "uint256",
              "name": "likes",
              "type": "uint256"
            },
            {
              "internalType": "uint256",
              "name": "reviewIndex",
              "type": "uint256"
            }
          ],
          "internalType": "struct RealEstate.Review[]",
          "name": "",
          "type": "tuple[]"
        }
      ],
      "stateMutability": "view",
      "type": "function"
    },
    {
      "inputs": [
        {
          "internalType": "address",
          "name": "user",
          "type": "address"
        }
      ],
      "name": "getUserReviews",
      "outputs": [
        {
          "components": [
            {
              "internalType": "address",
              "name": "reviewer",
              "type": "address"
            },
            {
              "internalType": "uint256",
              "name": "productId",
              "type": "uint256"
            },
            {
              "internalType": "uint8",
              "name": "rating",
              "type": "uint8"
            },
            {
              "internalType": "string",
              "name": "comment",
              "type": "string"
            },
            {
              "internalType": "uint256",
              "name": "likes",
              "type": "uint256"
            },
            {
              "internalType": "uint256",
              "name": "reviewIndex",
              "type": "uint256"
            }
          ],
          "internalType": "struct RealEstate.Review[]",
          "name": "",
          "type": "tuple[]"
        }
      ],
      "stateMutability": "view",
      "type": "function"
    },
    {
      "inputs": [
        {
          "internalType": "uint256",
          "name": "productId",
          "type": "uint256"
        },
        {
          "internalType": "uint256",
          "name": "reviewIndex",
          "type": "uint256"
        },
        {
          "internalType": "address",
          "name": "user",
          "type": "address"
        }
      ],
      "name": "likeReview",
      "outputs": [],
      "stateMutability": "nonpayable",
      "type": "function"
    },
    {
      "inputs": [],
      "name": "getHighestRatedProduct",
      "outputs": [
        {
          "internalType": "uint256",
          "name": "",
          "type": "uint256"
        }
      ],
      "stateMutability": "view",
      "type": "function"
    },
    {
      "inputs": [],
      "name": "getListingPrice",
      "outputs": [
        {
          "internalType": "uint256",
          "name": "",
          "type": "uint256"
        }
      ],
      "stateMutability": "view",
      "type": "function"
    },
    {
      "inputs": [
        {
          "internalType": "uint256",
          "name": "_listingPrice",
          "type": "uint256"
        },
        {
          "internalType": "address",
          "name": "owner",
          "type": "address"
        }
      ],
      "name": "updateListingPrice",
      "outputs": [],
      "stateMutability": "payable",
      "type": "function"
    }
  ],
  "bytecode": "0x608060405273b309098bcb51e5c687a16fa41bd6055f47c9ebb05f806101000a81548173ffffffffffffffffffffffffffffffffffffffff021916908373ffffffffffffffffffffffffffffffffffffffff1602179055506658d15e1762800060015534801561006d575f80fd5b50613d198061007b5f395ff3fe6080604052600436106100fd575f3560e01c806380cad5a611610094578063c78f19f911610063578063c78f19f91461035b578063dc035e6d14610385578063e2fc6b95146103ad578063e57d6fb7146103d5578063f56720b514610411576100fd565b806380cad5a6146102cf578063844ce562146102eb5780639e92a69414610315578063a3007b1f14610331576100fd565b80633b3bfa15116100d05780633b3bfa15146101e85780633d51402c1461022957806346a4237b14610253578063707893081461028f576100fd565b8063060a3e611461010157806312e855851461013d57806318d0e8b21461016757806332665ffb146101a3575b5f80fd5b34801561010c575f80fd5b5061012760048036038101906101229190612738565b61043b565b6040516101349190612b33565b60405180910390f35b348015610148575f80fd5b50610151610ad0565b60405161015e9190612b62565b60405180910390f35b348015610172575f80fd5b5061018d60048036038101906101889190612738565b610ad9565b60405161019a9190612cd7565b60405180910390f35b3480156101ae575f80fd5b506101c960048036038101906101c49190612d21565b610e69565b6040516101df9a99989796959493929190612e92565b60405180910390f35b3480156101f3575f80fd5b5061020e60048036038101906102099190613089565b611383565b604051610220969594939291906131b2565b60405180910390f35b348015610234575f80fd5b5061023d6114ae565b60405161024a9190612b33565b60405180910390f35b34801561025e575f80fd5b5061027960048036038101906102749190612d21565b611a2c565b6040516102869190612cd7565b60405180910390f35b34801561029a575f80fd5b506102b560048036038101906102b09190613089565b611bb7565b6040516102c6959493929190613234565b60405180910390f35b6102e960048036038101906102e491906132a1565b611d4d565b005b3480156102f6575f80fd5b506102ff611e72565b60405161030c9190612b62565b60405180910390f35b61032f600480360381019061032a91906132a1565b611e78565b005b34801561033c575f80fd5b5061034561204a565b6040516103529190612b62565b60405180910390f35b348015610366575f80fd5b5061036f6120ed565b60405161037c9190612b62565b60405180910390f35b348015610390575f80fd5b506103ab60048036038101906103a691906132df565b6120f3565b005b3480156103b8575f80fd5b506103d360048036038101906103ce91906133b6565b612198565b005b3480156103e0575f80fd5b506103fb60048036038101906103f6919061343a565b612527565b604051610408919061348a565b60405180910390f35b34801561041c575f80fd5b50610425612617565b6040516104329190612b62565b60405180910390f35b60605f60035490505f805f5b838110156104e4578573ffffffffffffffffffffffffffffffffffffffff1660025f60018461047691906134d7565b81526020019081526020015f206001015f9054906101000a900473ffffffffffffffffffffffffffffffffffffffff1673ffffffffffffffffffffffffffffffffffffffff16036104d1576001836104ce91906134d7565b92505b80806104dc9061350a565b915050610447565b505f8267ffffffffffffffff811115610500576104ff612f65565b5b60405190808252806020026020018201604052801561053957816020015b61052661261d565b81526020019060019003908161051e5790505b5090505f5b84811015610ac3578673ffffffffffffffffffffffffffffffffffffffff1660025f60018461056d91906134d7565b81526020019081526020015f206001015f9054906101000a900473ffffffffffffffffffffffffffffffffffffffff1673ffffffffffffffffffffffffffffffffffffffff1603610ab0575f6001826105c691906134d7565b90505f60025f8381526020019081526020015f20905080604051806101400160405290815f8201548152602001600182015f9054906101000a900473ffffffffffffffffffffffffffffffffffffffff1673ffffffffffffffffffffffffffffffffffffffff1673ffffffffffffffffffffffffffffffffffffffff168152602001600282015481526020016003820180546106619061357e565b80601f016020809104026020016040519081016040528092919081815260200182805461068d9061357e565b80156106d85780601f106106af576101008083540402835291602001916106d8565b820191905f5260205f20905b8154815290600101906020018083116106bb57829003601f168201915b505050505081526020016004820180546106f19061357e565b80601f016020809104026020016040519081016040528092919081815260200182805461071d9061357e565b80156107685780601f1061073f57610100808354040283529160200191610768565b820191905f5260205f20905b81548152906001019060200180831161074b57829003601f168201915b505050505081526020016005820180546107819061357e565b80601f01602080910402602001604051908101604052809291908181526020018280546107ad9061357e565b80156107f85780601f106107cf576101008083540402835291602001916107f8565b820191905f5260205f20905b8154815290600101906020018083116107db57829003601f168201915b505050505081526020016006820180546108119061357e565b80601f016020809104026020016040519081016040528092919081815260200182805461083d9061357e565b80156108885780601f1061085f57610100808354040283529160200191610888565b820191905f5260205f20905b81548152906001019060200180831161086b57829003601f168201915b505050505081526020016007820180546108a19061357e565b80601f01602080910402602001604051908101604052809291908181526020018280546108cd9061357e565b80156109185780601f106108ef57610100808354040283529160200191610918565b820191905f5260205f20905b8154815290600101906020018083116108fb57829003601f168201915b50505050508152602001600882018054806020026020016040519081016040528092919081815260200182805480156109a357602002820191905f5260205f20905b815f9054906101000a900473ffffffffffffffffffffffffffffffffffffffff1673ffffffffffffffffffffffffffffffffffffffff168152602001906001019080831161095a575b5050505050815260200160098201805480602002602001604051908101604052809291908181526020015f905b82821015610a78578382905f5260205f200180546109ed9061357e565b80601f0160208091040260200160405190810160405280929190818152602001828054610a199061357e565b8015610a645780601f10610a3b57610100808354040283529160200191610a64565b820191905f5260205f20905b815481529060010190602001808311610a4757829003601f168201915b5050505050815260200190600101906109d0565b5050505081525050848681518110610a9357610a926135ae565b5b6020026020010181905250600185610aab91906134d7565b945050505b8080610abb9061350a565b91505061053e565b5080945050505050919050565b5f600154905090565b60605f60055f8473ffffffffffffffffffffffffffffffffffffffff1673ffffffffffffffffffffffffffffffffffffffff1681526020019081526020015f208054905090505f8167ffffffffffffffff811115610b3a57610b39612f65565b5b604051908082528060200260200182016040528015610b7357816020015b610b60612683565b815260200190600190039081610b585790505b5090505f5b60055f8673ffffffffffffffffffffffffffffffffffffffff1673ffffffffffffffffffffffffffffffffffffffff1681526020019081526020015f2080549050811015610e5e575f60055f8773ffffffffffffffffffffffffffffffffffffffff1673ffffffffffffffffffffffffffffffffffffffff1681526020019081526020015f208281548110610c1057610c0f6135ae565b5b905f5260205f20015490505f60045f8381526020019081526020015f20805480602002602001604051908101604052809291908181526020015f905b82821015610d9a578382905f5260205f2090600602016040518060c00160405290815f82015f9054906101000a900473ffffffffffffffffffffffffffffffffffffffff1673ffffffffffffffffffffffffffffffffffffffff1673ffffffffffffffffffffffffffffffffffffffff16815260200160018201548152602001600282015f9054906101000a900460ff1660ff1660ff168152602001600382018054610cf79061357e565b80601f0160208091040260200160405190810160405280929190818152602001828054610d239061357e565b8015610d6e5780601f10610d4557610100808354040283529160200191610d6e565b820191905f5260205f20905b815481529060010190602001808311610d5157829003601f168201915b505050505081526020016004820154815260200160058201548152505081526020019060010190610c4c565b5050505090505f5b8151811015610e48578773ffffffffffffffffffffffffffffffffffffffff16828281518110610dd557610dd46135ae565b5b60200260200101515f015173ffffffffffffffffffffffffffffffffffffffff1603610e3557818181518110610e0e57610e0d6135ae565b5b6020026020010151858581518110610e2957610e286135ae565b5b60200260200101819052505b8080610e409061350a565b915050610da2565b5050508080610e569061350a565b915050610b78565b508092505050919050565b5f805f60608060608060608060605f60025f8d81526020019081526020015f20604051806101400160405290815f8201548152602001600182015f9054906101000a900473ffffffffffffffffffffffffffffffffffffffff1673ffffffffffffffffffffffffffffffffffffffff1673ffffffffffffffffffffffffffffffffffffffff16815260200160028201548152602001600382018054610f0d9061357e565b80601f0160208091040260200160405190810160405280929190818152602001828054610f399061357e565b8015610f845780601f10610f5b57610100808354040283529160200191610f84565b820191905f5260205f20905b815481529060010190602001808311610f6757829003601f168201915b50505050508152602001600482018054610f9d9061357e565b80601f0160208091040260200160405190810160405280929190818152602001828054610fc99061357e565b80156110145780601f10610feb57610100808354040283529160200191611014565b820191905f5260205f20905b815481529060010190602001808311610ff757829003601f168201915b5050505050815260200160058201805461102d9061357e565b80601f01602080910402602001604051908101604052809291908181526020018280546110599061357e565b80156110a45780601f1061107b576101008083540402835291602001916110a4565b820191905f5260205f20905b81548152906001019060200180831161108757829003601f168201915b505050505081526020016006820180546110bd9061357e565b80601f01602080910402602001604051908101604052809291908181526020018280546110e99061357e565b80156111345780601f1061110b57610100808354040283529160200191611134565b820191905f5260205f20905b81548152906001019060200180831161111757829003601f168201915b5050505050815260200160078201805461114d9061357e565b80601f01602080910402602001604051908101604052809291908181526020018280546111799061357e565b80156111c45780601f1061119b576101008083540402835291602001916111c4565b820191905f5260205f20905b8154815290600101906020018083116111a757829003601f168201915b505050505081526020016008820180548060200260200160405190810160405280929190818152602001828054801561124f57602002820191905f5260205f20905b815f9054906101000a900473ffffffffffffffffffffffffffffffffffffffff1673ffffffffffffffffffffffffffffffffffffffff1681526020019060010190808311611206575b5050505050815260200160098201805480602002602001604051908101604052809291908181526020015f905b82821015611324578382905f5260205f200180546112999061357e565b80601f01602080910402602001604051908101604052809291908181526020018280546112c59061357e565b80156113105780601f106112e757610100808354040283529160200191611310565b820191905f5260205f20905b8154815290600101906020018083116112f357829003601f168201915b50505050508152602001906001019061127c565b50505050815250509050805f015181602001518260400151836060015184608001518560a001518660c001518760e001518861010001518961012001519a509a509a509a509a509a509a509a509a509a50509193959799509193959799565b5f60608060608060605f60025f8e81526020019081526020015f2090508d73ffffffffffffffffffffffffffffffffffffffff16816001015f9054906101000a900473ffffffffffffffffffffffffffffffffffffffff1673ffffffffffffffffffffffffffffffffffffffff1614611431576040517f08c379a000000000000000000000000000000000000000000000000000000000815260040161142890613625565b60405180910390fd5b8b81600301908161144291906137e0565b508a81600401908161145491906137e0565b508981600501908161146691906137e0565b508881600601908161147891906137e0565b508781600701908161148a91906137e0565b508c8c898c8e8d965096509650965096509650509750975097509750975097915050565b60605f60035490505f808267ffffffffffffffff8111156114d2576114d1612f65565b5b60405190808252806020026020018201604052801561150b57816020015b6114f861261d565b8152602001906001900390816114f05790505b5090505f5b83811015611a22575f60018261152691906134d7565b90505f60025f8381526020019081526020015f20905080604051806101400160405290815f8201548152602001600182015f9054906101000a900473ffffffffffffffffffffffffffffffffffffffff1673ffffffffffffffffffffffffffffffffffffffff1673ffffffffffffffffffffffffffffffffffffffff168152602001600282015481526020016003820180546115c19061357e565b80601f01602080910402602001604051908101604052809291908181526020018280546115ed9061357e565b80156116385780601f1061160f57610100808354040283529160200191611638565b820191905f5260205f20905b81548152906001019060200180831161161b57829003601f168201915b505050505081526020016004820180546116519061357e565b80601f016020809104026020016040519081016040528092919081815260200182805461167d9061357e565b80156116c85780601f1061169f576101008083540402835291602001916116c8565b820191905f5260205f20905b8154815290600101906020018083116116ab57829003601f168201915b505050505081526020016005820180546116e19061357e565b80601f016020809104026020016040519081016040528092919081815260200182805461170d9061357e565b80156117585780601f1061172f57610100808354040283529160200191611758565b820191905f5260205f20905b81548152906001019060200180831161173b57829003601f168201915b505050505081526020016006820180546117719061357e565b80601f016020809104026020016040519081016040528092919081815260200182805461179d9061357e565b80156117e85780601f106117bf576101008083540402835291602001916117e8565b820191905f5260205f20905b8154815290600101906020018083116117cb57829003601f168201915b505050505081526020016007820180546118019061357e565b80601f016020809104026020016040519081016040528092919081815260200182805461182d9061357e565b80156118785780601f1061184f57610100808354040283529160200191611878565b820191905f5260205f20905b81548152906001019060200180831161185b57829003601f168201915b505050505081526020016008820180548060200260200160405190810160405280929190818152602001828054801561190357602002820191905f5260205f20905b815f9054906101000a900473ffffffffffffffffffffffffffffffffffffffff1673ffffffffffffffffffffffffffffffffffffffff16815260200190600101908083116118ba575b5050505050815260200160098201805480602002602001604051908101604052809291908181526020015f905b828210156119d8578382905f5260205f2001805461194d9061357e565b80601f01602080910402602001604051908101604052809291908181526020018280546119799061357e565b80156119c45780601f1061199b576101008083540402835291602001916119c4565b820191905f5260205f20905b8154815290600101906020018083116119a757829003601f168201915b505050505081526020019060010190611930565b50505050815250508486815181106119f3576119f26135ae565b5b6020026020010181905250600185611a0b91906134d7565b945050508080611a1a9061350a565b915050611510565b5080935050505090565b606060045f8381526020019081526020015f20805480602002602001604051908101604052809291908181526020015f905b82821015611bac578382905f5260205f2090600602016040518060c00160405290815f82015f9054906101000a900473ffffffffffffffffffffffffffffffffffffffff1673ffffffffffffffffffffffffffffffffffffffff1673ffffffffffffffffffffffffffffffffffffffff16815260200160018201548152602001600282015f9054906101000a900460ff1660ff1660ff168152602001600382018054611b099061357e565b80601f0160208091040260200160405190810160405280929190818152602001828054611b359061357e565b8015611b805780601f10611b5757610100808354040283529160200191611b80565b820191905f5260205f20905b815481529060010190602001808311611b6357829003601f168201915b505050505081526020016004820154815260200160058201548152505081526020019060010190611a5e565b505050509050919050565b5f6060806060805f8b11611c00576040517f08c379a0000000000000000000000000000000000000000000000000000000008152600401611bf7906138f9565b60405180910390fd5b60035f815480929190611c129061350a565b91905055505f60035490505f60025f8381526020019081526020015f20905081815f01819055508d816001015f6101000a81548173ffffffffffffffffffffffffffffffffffffffff021916908373ffffffffffffffffffffffffffffffffffffffff1602179055508c81600201819055508b816003019081611c9591906137e0565b508a816004019081611ca791906137e0565b5089816005019081611cb991906137e0565b5088816006019081611ccb91906137e0565b5087816007019081611cdd91906137e0565b508d73ffffffffffffffffffffffffffffffffffffffff16827f23fb658c1698b92f5fe511a079c17ecf7965cbc3f1b873328c67e2c3c0820f1f8f604051611d259190612b62565b60405180910390a3818c898c8e96509650965096509650505097509750975097509792505050565b5f8054906101000a900473ffffffffffffffffffffffffffffffffffffffff1673ffffffffffffffffffffffffffffffffffffffff163373ffffffffffffffffffffffffffffffffffffffff1614611dda576040517f08c379a0000000000000000000000000000000000000000000000000000000008152600401611dd190613987565b60405180910390fd5b8073ffffffffffffffffffffffffffffffffffffffff165f8054906101000a900473ffffffffffffffffffffffffffffffffffffffff1673ffffffffffffffffffffffffffffffffffffffff1614611e67576040517f08c379a0000000000000000000000000000000000000000000000000000000008152600401611e5e90613a15565b60405180910390fd5b816001819055505050565b60075481565b5f34905060025f8481526020019081526020015f20600201548114611ed2576040517f08c379a0000000000000000000000000000000000000000000000000000000008152600401611ec990613a7d565b60405180910390fd5b5f60025f8581526020019081526020015f2090505f816001015f9054906101000a900473ffffffffffffffffffffffffffffffffffffffff1673ffffffffffffffffffffffffffffffffffffffff1683604051611f2e90613ac8565b5f6040518083038185875af1925050503d805f8114611f68576040519150601f19603f3d011682016040523d82523d5f602084013e611f6d565b606091505b5050905080156120435783826001015f6101000a81548173ffffffffffffffffffffffffffffffffffffffff021916908373ffffffffffffffffffffffffffffffffffffffff1602179055508373ffffffffffffffffffffffffffffffffffffffff16826001015f9054906101000a900473ffffffffffffffffffffffffffffffffffffffff1673ffffffffffffffffffffffffffffffffffffffff16867fddd64180d9701c7ede08673ac8106484ff983a472929330d4fbde4e35d65cb068660405161203a9190612b62565b60405180910390a45b5050505050565b5f805f90505f805b6007548110156120e4575f60018261206a91906134d7565b90505f60065f8381526020019081526020015f206002015411156120d0575f60065f8381526020019081526020015f206002015460065f8481526020019081526020015f20600101546120bd9190613b09565b9050848111156120ce578094508193505b505b5080806120dc9061350a565b915050612052565b50809250505090565b60015481565b5f60045f8581526020019081526020015f208381548110612117576121166135ae565b5b905f5260205f2090600602019050806004015f8154809291906121399061350a565b91905055508173ffffffffffffffffffffffffffffffffffffffff1683857fc58deae63c2d94e1502a392380f59901dc4cd3c3bbc40308b6189decf09671d5846004015460405161218a9190612b62565b60405180910390a450505050565b60018460ff16101580156121b0575060058460ff1611155b6121ef576040517f08c379a00000000000000000000000000000000000000000000000000000000081526004016121e690613b83565b60405180910390fd5b5f60025f8781526020019081526020015f2090508060080182908060018154018082558091505060019003905f5260205f20015f9091909190916101000a81548173ffffffffffffffffffffffffffffffffffffffff021916908373ffffffffffffffffffffffffffffffffffffffff16021790555080600901848490918060018154018082558091505060019003905f5260205f20015f9091929091929091929091925091826122a1929190613bab565b5060045f8781526020019081526020015f206040518060c001604052808473ffffffffffffffffffffffffffffffffffffffff1681526020018881526020018760ff16815260200186868080601f0160208091040260200160405190810160405280939291908181526020018383808284375f81840152601f19601f8201169050808301925050505050505081526020015f8152602001600754815250908060018154018082558091505060019003905f5260205f2090600602015f909190919091505f820151815f015f6101000a81548173ffffffffffffffffffffffffffffffffffffffff021916908373ffffffffffffffffffffffffffffffffffffffff160217905550602082015181600101556040820151816002015f6101000a81548160ff021916908360ff16021790555060608201518160030190816123e791906137e0565b506080820151816004015560a08201518160050155505060055f8373ffffffffffffffffffffffffffffffffffffffff1673ffffffffffffffffffffffffffffffffffffffff1681526020019081526020015f2086908060018154018082558091505060019003905f5260205f20015f90919091909150558460ff1660065f8881526020019081526020015f206001015f82825461248591906134d7565b9250508190555060065f8781526020019081526020015f206002015f8154809291906124b09061350a565b91905055508173ffffffffffffffffffffffffffffffffffffffff16867f4a7905ef60a1bc6706f11a56f05a4ebb480a37effdcaaba357946727b7aa074387878760405161250093929190613cb3565b60405180910390a360075f81548092919061251a9061350a565b9190505550505050505050565b60605f60025f8581526020019081526020015f2090508473ffffffffffffffffffffffffffffffffffffffff16816001015f9054906101000a900473ffffffffffffffffffffffffffffffffffffffff1673ffffffffffffffffffffffffffffffffffffffff16146125ce576040517f08c379a00000000000000000000000000000000000000000000000000000000081526004016125c590613625565b60405180910390fd5b8281600201819055506040518060400160405280601e81526020017f596f75722050726f7065727479205072696365204973205570646174656400008152509150509392505050565b60035481565b6040518061014001604052805f81526020015f73ffffffffffffffffffffffffffffffffffffffff1681526020015f8152602001606081526020016060815260200160608152602001606081526020016060815260200160608152602001606081525090565b6040518060c001604052805f73ffffffffffffffffffffffffffffffffffffffff1681526020015f81526020015f60ff168152602001606081526020015f81526020015f81525090565b5f604051905090565b5f80fd5b5f80fd5b5f73ffffffffffffffffffffffffffffffffffffffff82169050919050565b5f612707826126de565b9050919050565b612717816126fd565b8114612721575f80fd5b50565b5f813590506127328161270e565b92915050565b5f6020828403121561274d5761274c6126d6565b5b5f61275a84828501612724565b91505092915050565b5f81519050919050565b5f82825260208201905092915050565b5f819050602082019050919050565b5f819050919050565b61279e8161278c565b82525050565b6127ad816126fd565b82525050565b5f81519050919050565b5f82825260208201905092915050565b5f5b838110156127ea5780820151818401526020810190506127cf565b5f8484015250505050565b5f601f19601f8301169050919050565b5f61280f826127b3565b61281981856127bd565b93506128298185602086016127cd565b612832816127f5565b840191505092915050565b5f81519050919050565b5f82825260208201905092915050565b5f819050602082019050919050565b5f61287183836127a4565b60208301905092915050565b5f602082019050919050565b5f6128938261283d565b61289d8185612847565b93506128a883612857565b805f5b838110156128d85781516128bf8882612866565b97506128ca8361287d565b9250506001810190506128ab565b5085935050505092915050565b5f81519050919050565b5f82825260208201905092915050565b5f819050602082019050919050565b5f6129198383612805565b905092915050565b5f602082019050919050565b5f612937826128e5565b61294181856128ef565b935083602082028501612953856128ff565b805f5b8581101561298e578484038952815161296f858261290e565b945061297a83612921565b925060208a01995050600181019050612956565b50829750879550505050505092915050565b5f61014083015f8301516129b65f860182612795565b5060208301516129c960208601826127a4565b5060408301516129dc6040860182612795565b50606083015184820360608601526129f48282612805565b91505060808301518482036080860152612a0e8282612805565b91505060a083015184820360a0860152612a288282612805565b91505060c083015184820360c0860152612a428282612805565b91505060e083015184820360e0860152612a5c8282612805565b915050610100830151848203610100860152612a788282612889565b915050610120830151848203610120860152612a94828261292d565b9150508091505092915050565b5f612aac83836129a0565b905092915050565b5f602082019050919050565b5f612aca82612763565b612ad4818561276d565b935083602082028501612ae68561277d565b805f5b85811015612b215784840389528151612b028582612aa1565b9450612b0d83612ab4565b925060208a01995050600181019050612ae9565b50829750879550505050505092915050565b5f6020820190508181035f830152612b4b8184612ac0565b905092915050565b612b5c8161278c565b82525050565b5f602082019050612b755f830184612b53565b92915050565b5f81519050919050565b5f82825260208201905092915050565b5f819050602082019050919050565b5f60ff82169050919050565b612bb981612ba4565b82525050565b5f60c083015f830151612bd45f8601826127a4565b506020830151612be76020860182612795565b506040830151612bfa6040860182612bb0565b5060608301518482036060860152612c128282612805565b9150506080830151612c276080860182612795565b5060a0830151612c3a60a0860182612795565b508091505092915050565b5f612c508383612bbf565b905092915050565b5f602082019050919050565b5f612c6e82612b7b565b612c788185612b85565b935083602082028501612c8a85612b95565b805f5b85811015612cc55784840389528151612ca68582612c45565b9450612cb183612c58565b925060208a01995050600181019050612c8d565b50829750879550505050505092915050565b5f6020820190508181035f830152612cef8184612c64565b905092915050565b612d008161278c565b8114612d0a575f80fd5b50565b5f81359050612d1b81612cf7565b92915050565b5f60208284031215612d3657612d356126d6565b5b5f612d4384828501612d0d565b91505092915050565b612d55816126fd565b82525050565b5f82825260208201905092915050565b5f612d75826127b3565b612d7f8185612d5b565b9350612d8f8185602086016127cd565b612d98816127f5565b840191505092915050565b5f82825260208201905092915050565b5f612dbd8261283d565b612dc78185612da3565b9350612dd283612857565b805f5b83811015612e02578151612de98882612866565b9750612df48361287d565b925050600181019050612dd5565b5085935050505092915050565b5f82825260208201905092915050565b5f612e29826128e5565b612e338185612e0f565b935083602082028501612e45856128ff565b805f5b85811015612e805784840389528151612e61858261290e565b9450612e6c83612921565b925060208a01995050600181019050612e48565b50829750879550505050505092915050565b5f61014082019050612ea65f83018d612b53565b612eb3602083018c612d4c565b612ec0604083018b612b53565b8181036060830152612ed2818a612d6b565b90508181036080830152612ee68189612d6b565b905081810360a0830152612efa8188612d6b565b905081810360c0830152612f0e8187612d6b565b905081810360e0830152612f228186612d6b565b9050818103610100830152612f378185612db3565b9050818103610120830152612f4c8184612e1f565b90509b9a5050505050505050505050565b5f80fd5b5f80fd5b7f4e487b71000000000000000000000000000000000000000000000000000000005f52604160045260245ffd5b612f9b826127f5565b810181811067ffffffffffffffff82111715612fba57612fb9612f65565b5b80604052505050565b5f612fcc6126cd565b9050612fd88282612f92565b919050565b5f67ffffffffffffffff821115612ff757612ff6612f65565b5b613000826127f5565b9050602081019050919050565b828183375f83830152505050565b5f61302d61302884612fdd565b612fc3565b90508281526020810184848401111561304957613048612f61565b5b61305484828561300d565b509392505050565b5f82601f8301126130705761306f612f5d565b5b813561308084826020860161301b565b91505092915050565b5f805f805f805f60e0888a0312156130a4576130a36126d6565b5b5f6130b18a828b01612724565b97505060206130c28a828b01612d0d565b965050604088013567ffffffffffffffff8111156130e3576130e26126da565b5b6130ef8a828b0161305c565b955050606088013567ffffffffffffffff8111156131105761310f6126da565b5b61311c8a828b0161305c565b945050608088013567ffffffffffffffff81111561313d5761313c6126da565b5b6131498a828b0161305c565b93505060a088013567ffffffffffffffff81111561316a576131696126da565b5b6131768a828b0161305c565b92505060c088013567ffffffffffffffff811115613197576131966126da565b5b6131a38a828b0161305c565b91505092959891949750929550565b5f60c0820190506131c55f830189612b53565b81810360208301526131d78188612d6b565b905081810360408301526131eb8187612d6b565b905081810360608301526131ff8186612d6b565b905081810360808301526132138185612d6b565b905081810360a08301526132278184612d6b565b9050979650505050505050565b5f60a0820190506132475f830188612b53565b81810360208301526132598187612d6b565b9050818103604083015261326d8186612d6b565b905081810360608301526132818185612d6b565b905081810360808301526132958184612d6b565b90509695505050505050565b5f80604083850312156132b7576132b66126d6565b5b5f6132c485828601612d0d565b92505060206132d585828601612724565b9150509250929050565b5f805f606084860312156132f6576132f56126d6565b5b5f61330386828701612d0d565b935050602061331486828701612d0d565b925050604061332586828701612724565b9150509250925092565b61333881612ba4565b8114613342575f80fd5b50565b5f813590506133538161332f565b92915050565b5f80fd5b5f80fd5b5f8083601f84011261337657613375612f5d565b5b8235905067ffffffffffffffff81111561339357613392613359565b5b6020830191508360018202830111156133af576133ae61335d565b5b9250929050565b5f805f805f608086880312156133cf576133ce6126d6565b5b5f6133dc88828901612d0d565b95505060206133ed88828901613345565b945050604086013567ffffffffffffffff81111561340e5761340d6126da565b5b61341a88828901613361565b9350935050606061342d88828901612724565b9150509295509295909350565b5f805f60608486031215613451576134506126d6565b5b5f61345e86828701612724565b935050602061346f86828701612d0d565b925050604061348086828701612d0d565b9150509250925092565b5f6020820190508181035f8301526134a28184612d6b565b905092915050565b7f4e487b71000000000000000000000000000000000000000000000000000000005f52601160045260245ffd5b5f6134e18261278c565b91506134ec8361278c565b9250828201905080821115613504576135036134aa565b5b92915050565b5f6135148261278c565b91507fffffffffffffffffffffffffffffffffffffffffffffffffffffffffffffffff8203613546576135456134aa565b5b600182019050919050565b7f4e487b71000000000000000000000000000000000000000000000000000000005f52602260045260245ffd5b5f600282049050600182168061359557607f821691505b6020821081036135a8576135a7613551565b5b50919050565b7f4e487b71000000000000000000000000000000000000000000000000000000005f52603260045260245ffd5b7f596f7520617265206e6f7420616e206f776e65720000000000000000000000005f82015250565b5f61360f601483612d5b565b915061361a826135db565b602082019050919050565b5f6020820190508181035f83015261363c81613603565b9050919050565b5f819050815f5260205f209050919050565b5f6020601f8301049050919050565b5f82821b905092915050565b5f6008830261369f7fffffffffffffffffffffffffffffffffffffffffffffffffffffffffffffffff82613664565b6136a98683613664565b95508019841693508086168417925050509392505050565b5f819050919050565b5f6136e46136df6136da8461278c565b6136c1565b61278c565b9050919050565b5f819050919050565b6136fd836136ca565b613711613709826136eb565b848454613670565b825550505050565b5f90565b613725613719565b6137308184846136f4565b505050565b5b81811015613753576137485f8261371d565b600181019050613736565b5050565b601f8211156137985761376981613643565b61377284613655565b81016020851015613781578190505b61379561378d85613655565b830182613735565b50505b505050565b5f82821c905092915050565b5f6137b85f198460080261379d565b1980831691505092915050565b5f6137d083836137a9565b9150826002028217905092915050565b6137e9826127b3565b67ffffffffffffffff81111561380257613801612f65565b5b61380c825461357e565b613817828285613757565b5f60209050601f831160018114613848575f8415613836578287015190505b61384085826137c5565b8655506138a7565b601f19841661385686613643565b5f5b8281101561387d57848901518255600182019150602085019450602081019050613858565b8683101561389a5784890151613896601f8916826137a9565b8355505b6001600288020188555050505b505050505050565b7f5072696365206d7573742062652067726561746572207468616e20302e0000005f82015250565b5f6138e3601d83612d5b565b91506138ee826138af565b602082019050919050565b5f6020820190508181035f830152613910816138d7565b9050919050565b7f6f6e6c79206f776e6572206f662074686520636f6e74726163742063616e20635f8201527f68616e676520746865206c697374696e67207072696365000000000000000000602082015250565b5f613971603783612d5b565b915061397c82613917565b604082019050919050565b5f6020820190508181035f83015261399e81613965565b9050919050565b7f4f6e6c7920636f6e7472616374206f776e65722063616e20757064617465206c5f8201527f697374696e672070726963652e00000000000000000000000000000000000000602082015250565b5f6139ff602d83612d5b565b9150613a0a826139a5565b604082019050919050565b5f6020820190508181035f830152613a2c816139f3565b9050919050565b7f496e73756666696369656e742066756e64732e000000000000000000000000005f82015250565b5f613a67601383612d5b565b9150613a7282613a33565b602082019050919050565b5f6020820190508181035f830152613a9481613a5b565b9050919050565b5f81905092915050565b50565b5f613ab35f83613a9b565b9150613abe82613aa5565b5f82019050919050565b5f613ad282613aa8565b9150819050919050565b7f4e487b71000000000000000000000000000000000000000000000000000000005f52601260045260245ffd5b5f613b138261278c565b9150613b1e8361278c565b925082613b2e57613b2d613adc565b5b828204905092915050565b7f526174696e67206d757374206265206265747765656e203120616e6420352e005f82015250565b5f613b6d601f83612d5b565b9150613b7882613b39565b602082019050919050565b5f6020820190508181035f830152613b9a81613b61565b9050919050565b5f82905092915050565b613bb58383613ba1565b67ffffffffffffffff811115613bce57613bcd612f65565b5b613bd8825461357e565b613be3828285613757565b5f601f831160018114613c10575f8415613bfe578287013590505b613c0885826137c5565b865550613c6f565b601f198416613c1e86613643565b5f5b82811015613c4557848901358255600182019150602085019450602081019050613c20565b86831015613c625784890135613c5e601f8916826137a9565b8355505b6001600288020188555050505b50505050505050565b613c8181612ba4565b82525050565b5f613c928385612d5b565b9350613c9f83858461300d565b613ca8836127f5565b840190509392505050565b5f604082019050613cc65f830186613c78565b8181036020830152613cd9818486613c87565b905094935050505056fea2646970667358221220b693b7f639c13045d81428de4359a1c8ffd9e428ac0f96c07c4f2453bb1588f264736f6c63430008150033",
  "immutableReferences": {},
  "source": "// SPDX-License-Identifier: UNLICENSED\r\npragma solidity ^0.8.9;\r\n\r\ncontract RealEstate {\r\n    struct Property {\r\n        uint256 productID;\r\n        address owner;\r\n        uint256 price;\r\n        string propertyTitle;\r\n        string category;\r\n        string images;\r\n        string propertyAddress;\r\n        string description;\r\n        address[] reviewers;\r\n        string[] reviews;\r\n    }\r\n\r\n    address payable contractOwner =\r\n        payable(0xb309098bcB51E5C687a16FA41bD6055f47c9eBb0);\r\n    uint256 public listingPrice = 0.025 ether;\r\n    mapping(uint256 => Property) private properties;\r\n    uint256 public propertyIndex;\r\n\r\n    event PropertyListed(\r\n        uint256 indexed id,\r\n        address indexed owner,\r\n        uint256 price\r\n    );\r\n    event PropertySold(\r\n        uint256 indexed id,\r\n        address indexed oldOwner,\r\n        address indexed newOwner,\r\n        uint256 price\r\n    );\r\n    event PropertyResold(\r\n        uint256 indexed id,\r\n        address indexed oldOwner,\r\n        address indexed newOwner,\r\n        uint256 price\r\n    );\r\n\r\n    //REVIEWS MODEL\r\n    struct Review {\r\n        address reviewer;\r\n        uint256 productId;\r\n        uint8 rating;\r\n        string comment;\r\n        uint256 likes;\r\n        uint256 reviewIndex;\r\n    }\r\n\r\n    struct Product {\r\n        uint256 productId;\r\n        uint256 totalRating;\r\n        uint256 numReviews;\r\n    }\r\n\r\n    mapping(uint256 => Review[]) private reviews;\r\n    mapping(address => uint256[]) private userReviews;\r\n    mapping(uint256 => Product) private products;\r\n\r\n    uint256 public reviewsCounter;\r\n\r\n    event ReviewAdded(\r\n        uint256 indexed productId,\r\n        address indexed reviewer,\r\n        uint8 rating,\r\n        string comment\r\n    );\r\n    event ReviewLiked(\r\n        uint256 indexed productId,\r\n        uint256 indexed reviewIndex,\r\n        address indexed liker,\r\n        uint256 likes\r\n    );\r\n    //END OF REVIEWS\r\n\r\n    modifier onlyOwner() {\r\n        require(\r\n            msg.sender == contractOwner,\r\n            \"only owner of the contract can change the listing price\"\r\n        );\r\n        _;\r\n    }\r\n\r\n    function listProperty(\r\n        address owner,\r\n        uint256 price,\r\n        string memory _propertyTitle,\r\n        string memory _category,\r\n        string memory _images,\r\n        string memory _propertyAddress,\r\n        string memory _description\r\n    )\r\n        external\r\n        returns (\r\n            uint256,\r\n            string memory,\r\n            string memory,\r\n            string memory,\r\n            string memory\r\n        )\r\n    {\r\n        require(price > 0, \"Price must be greater than 0.\");\r\n        propertyIndex++;\r\n        uint256 productId = propertyIndex;\r\n        Property storage property = properties[productId];\r\n\r\n        property.productID = productId;\r\n        property.owner = owner;\r\n        property.price = price;\r\n        property.propertyTitle = _propertyTitle;\r\n        property.category = _category;\r\n        property.images = _images;\r\n        property.propertyAddress = _propertyAddress;\r\n        property.description = _description;\r\n\r\n        emit PropertyListed(productId, owner, price);\r\n\r\n        return (productId, _propertyTitle, _description, _images, _category);\r\n    }\r\n\r\n    function updateProperty(\r\n        address owner,\r\n        uint256 productId,\r\n        string memory _propertyTitle,\r\n        string memory _category,\r\n        string memory _images,\r\n        string memory _propertyAddress,\r\n        string memory _description\r\n    )\r\n        external\r\n        returns (\r\n            uint256,\r\n            string memory,\r\n            string memory,\r\n            string memory,\r\n            string memory,\r\n            string memory\r\n        )\r\n    {\r\n        Property storage property = properties[productId];\r\n        require(property.owner == owner, \"You are not an owner\");\r\n        property.propertyTitle = _propertyTitle;\r\n        property.category = _category;\r\n        property.images = _images;\r\n        property.propertyAddress = _propertyAddress;\r\n        property.description = _description;\r\n\r\n        return (\r\n            productId,\r\n            _propertyTitle,\r\n            _description,\r\n            _images,\r\n            _category,\r\n            _propertyAddress\r\n        );\r\n    }\r\n\r\n    function updatePrice(\r\n        address owner,\r\n        uint256 productId,\r\n        uint256 price\r\n    ) external returns (string memory) {\r\n        Property storage property = properties[productId];\r\n        require(property.owner == owner, \"You are not an owner\");\r\n\r\n        property.price = price;\r\n\r\n        return \"Your Property Price Is Updated\";\r\n    }\r\n\r\n    function buyProperty(uint256 id, address buyer) external payable {\r\n        uint256 amount = msg.value;\r\n\r\n        require(amount == properties[id].price, \"Insufficient funds.\");\r\n\r\n        Property storage property = properties[id];\r\n\r\n        (bool sent, ) = payable(property.owner).call{value: amount}(\"\");\r\n\r\n        if (sent) {\r\n            property.owner = buyer;\r\n            emit PropertySold(id, property.owner, buyer, amount);\r\n        }\r\n    }\r\n\r\n    function getAllProperties() public view returns (Property[] memory) {\r\n        uint256 itemCount = propertyIndex;\r\n        uint256 currentIndex = 0;\r\n\r\n        Property[] memory items = new Property[](itemCount);\r\n        for (uint256 i = 0; i < itemCount; i++) {\r\n            uint256 currentId = i + 1;\r\n            Property storage currentItem = properties[currentId];\r\n            items[currentIndex] = currentItem;\r\n            currentIndex += 1;\r\n        }\r\n        return items;\r\n    }\r\n\r\n    function getProperty(\r\n        uint256 id\r\n    )\r\n        external\r\n        view\r\n        returns (\r\n            uint256,\r\n            address,\r\n            uint256,\r\n            string memory,\r\n            string memory,\r\n            string memory,\r\n            string memory,\r\n            string memory,\r\n            address[] memory,\r\n            string[] memory\r\n        )\r\n    {\r\n        Property memory property = properties[id];\r\n        return (\r\n            property.productID,\r\n            property.owner,\r\n            property.price,\r\n            property.propertyTitle,\r\n            property.category,\r\n            property.images,\r\n            property.propertyAddress,\r\n            property.description,\r\n            property.reviewers,\r\n            property.reviews\r\n        );\r\n    }\r\n\r\n    function getUserProperties(\r\n        address user\r\n    ) external view returns (Property[] memory) {\r\n        uint256 totalItemCount = propertyIndex;\r\n        uint256 itemCount = 0;\r\n        uint256 currentIndex = 0;\r\n        for (uint256 i = 0; i < totalItemCount; i++) {\r\n            if (properties[i + 1].owner == user) {\r\n                itemCount += 1;\r\n            }\r\n        }\r\n\r\n        Property[] memory items = new Property[](itemCount);\r\n        for (uint256 i = 0; i < totalItemCount; i++) {\r\n            if (properties[i + 1].owner == user) {\r\n                uint256 currentId = i + 1;\r\n                Property storage currentItem = properties[currentId];\r\n                items[currentIndex] = currentItem;\r\n                currentIndex += 1;\r\n            }\r\n        }\r\n        return items;\r\n    }\r\n\r\n    //REVIEWS FUNCTION\r\n    function addReview(\r\n        uint256 productId,\r\n        uint8 rating,\r\n        string calldata comment,\r\n        address user\r\n    ) external {\r\n        require(rating >= 1 && rating <= 5, \"Rating must be between 1 and 5.\");\r\n        //PROPERTY\r\n        Property storage property = properties[productId];\r\n\r\n        property.reviewers.push(user);\r\n        property.reviews.push(comment);\r\n\r\n        //REVIEW\r\n        reviewsCounter;\r\n        reviews[productId].push(\r\n            Review(user, productId, rating, comment, 0, reviewsCounter)\r\n        );\r\n        userReviews[user].push(productId);\r\n        products[productId].totalRating += rating;\r\n        products[productId].numReviews++;\r\n        emit ReviewAdded(productId, user, rating, comment);\r\n        reviewsCounter++;\r\n    }\r\n\r\n    function getProductReviews(\r\n        uint256 productId\r\n    ) external view returns (Review[] memory) {\r\n        return reviews[productId];\r\n    }\r\n\r\n    function getUserReviews(\r\n        address user\r\n    ) external view returns (Review[] memory) {\r\n        uint256 totalReviews = userReviews[user].length;\r\n        Review[] memory userProductReviews = new Review[](totalReviews);\r\n        for (uint256 i = 0; i < userReviews[user].length; i++) {\r\n            uint256 productId = userReviews[user][i];\r\n            Review[] memory productReviews = reviews[productId];\r\n            for (uint256 j = 0; j < productReviews.length; j++) {\r\n                if (productReviews[j].reviewer == user) {\r\n                    userProductReviews[i] = productReviews[j];\r\n                }\r\n            }\r\n        }\r\n        return userProductReviews;\r\n    }\r\n\r\n    function likeReview(\r\n        uint256 productId,\r\n        uint256 reviewIndex,\r\n        address user\r\n    ) external {\r\n        Review storage review = reviews[productId][reviewIndex];\r\n        review.likes++;\r\n        emit ReviewLiked(productId, reviewIndex, user, review.likes);\r\n    }\r\n\r\n    function getHighestRatedProduct() external view returns (uint256) {\r\n        uint256 highestRating = 0;\r\n        uint256 highestRatedProductId = 0;\r\n        for (uint256 i = 0; i < reviewsCounter; i++) {\r\n            uint256 productId = i + 1;\r\n            if (products[productId].numReviews > 0) {\r\n                uint256 avgRating = products[productId].totalRating /\r\n                    products[productId].numReviews;\r\n                if (avgRating > highestRating) {\r\n                    highestRating = avgRating;\r\n                    highestRatedProductId = productId;\r\n                }\r\n            }\r\n        }\r\n        return highestRatedProductId;\r\n    }\r\n\r\n    //RETURN LISTING PRICE\r\n    function getListingPrice() public view returns (uint256) {\r\n        return listingPrice;\r\n    }\r\n    /* Updates the listing price of the contract */\r\n    function updateListingPrice(\r\n        uint256 _listingPrice,\r\n        address owner\r\n    ) public payable onlyOwner {\r\n        require(\r\n            contractOwner == owner,\r\n            \"Only contract owner can update listing price.\"\r\n        );\r\n        listingPrice = _listingPrice;\r\n    }\r\n}\r\n",
  "sourcePath": "C:\\Users\\dell\\Real-Estate-Management\\contract\\contracts\\RealEstate.sol",
  "compiler": {
    "name": "solc",
    "version": "0.8.21+commit.d9974bed.Emscripten.clang"
  },
  "schemaVersion": "3.4.16",
  "updatedAt": "2024-11-18T06:15:54.275Z",
  "devdoc": {
    "kind": "dev",
    "methods": {},
    "version": 1
  },
  "userdoc": {
    "kind": "user",
    "methods": {},
    "version": 1
  }
}